{
  "_format": "hh-sol-artifact-1",
  "contractName": "PatientRecordContract",
  "sourceName": "contracts/PatientRecordContract.sol",
  "abi": [
    {
      "anonymous": false,
      "inputs": [
        {
          "indexed": false,
          "internalType": "uint256",
          "name": "recordId",
          "type": "uint256"
        },
        {
          "indexed": true,
          "internalType": "address",
          "name": "provider",
          "type": "address"
        },
        {
          "indexed": false,
          "internalType": "string",
          "name": "data",
          "type": "string"
        }
      ],
      "name": "RecordAdded",
      "type": "event"
    },
    {
      "anonymous": false,
      "inputs": [
        {
          "indexed": false,
          "internalType": "uint256",
          "name": "recordId",
          "type": "uint256"
        },
        {
          "indexed": true,
          "internalType": "address",
          "name": "from",
          "type": "address"
        },
        {
          "indexed": true,
          "internalType": "address",
          "name": "to",
          "type": "address"
        }
      ],
      "name": "RecordTransferred",
      "type": "event"
    },
    {
      "inputs": [
        {
          "internalType": "string",
          "name": "data",
          "type": "string"
        }
      ],
      "name": "addRecord",
      "outputs": [],
      "stateMutability": "nonpayable",
      "type": "function"
    },
    {
      "inputs": [
        {
          "internalType": "uint256",
          "name": "recordId",
          "type": "uint256"
        }
      ],
      "name": "getRecord",
      "outputs": [
        {
          "internalType": "address",
          "name": "",
          "type": "address"
        },
        {
          "internalType": "string",
          "name": "",
          "type": "string"
        }
      ],
      "stateMutability": "view",
      "type": "function"
    },
    {
      "inputs": [
        {
          "internalType": "uint256",
          "name": "",
          "type": "uint256"
        }
      ],
      "name": "records",
      "outputs": [
        {
          "internalType": "address",
          "name": "provider",
          "type": "address"
        },
        {
          "internalType": "string",
          "name": "data",
          "type": "string"
        }
      ],
      "stateMutability": "view",
      "type": "function"
    },
    {
      "inputs": [],
      "name": "totalRecords",
      "outputs": [
        {
          "internalType": "uint256",
          "name": "",
          "type": "uint256"
        }
      ],
      "stateMutability": "view",
      "type": "function"
    },
    {
      "inputs": [
        {
          "internalType": "uint256",
          "name": "recordId",
          "type": "uint256"
        },
        {
          "internalType": "address",
          "name": "newProvider",
          "type": "address"
        }
      ],
      "name": "transferRecord",
      "outputs": [],
      "stateMutability": "nonpayable",
      "type": "function"
    }
  ],
  "bytecode": "0x608060405234801561001057600080fd5b50610e58806100206000396000f3fe608060405234801561001057600080fd5b50600436106100575760003560e01c806303e9e6091461005c578063125f89741461008d57806334461067146100ab5780636558d7af146100dc578063d81aa8c4146100f8575b600080fd5b61007660048036038101906100719190610683565b610114565b604051610084929190610781565b60405180910390f35b61009561027a565b6040516100a291906107c0565b60405180910390f35b6100c560048036038101906100c09190610683565b610280565b6040516100d3929190610781565b60405180910390f35b6100f660048036038101906100f19190610807565b61034c565b005b610112600480360381019061010d919061097c565b61052e565b005b60006060600054831061015c576040517f08c379a000000000000000000000000000000000000000000000000000000000815260040161015390610a11565b60405180910390fd5b6000600160008581526020019081526020016000206040518060400160405290816000820160009054906101000a900473ffffffffffffffffffffffffffffffffffffffff1673ffffffffffffffffffffffffffffffffffffffff1673ffffffffffffffffffffffffffffffffffffffff1681526020016001820180546101e290610a60565b80601f016020809104026020016040519081016040528092919081815260200182805461020e90610a60565b801561025b5780601f106102305761010080835404028352916020019161025b565b820191906000526020600020905b81548152906001019060200180831161023e57829003601f168201915b5050505050815250509050806000015181602001519250925050915091565b60005481565b60016020528060005260406000206000915090508060000160009054906101000a900473ffffffffffffffffffffffffffffffffffffffff16908060010180546102c990610a60565b80601f01602080910402602001604051908101604052809291908181526020018280546102f590610a60565b80156103425780601f1061031757610100808354040283529160200191610342565b820191906000526020600020905b81548152906001019060200180831161032557829003601f168201915b5050505050905082565b6000548210610390576040517f08c379a000000000000000000000000000000000000000000000000000000000815260040161038790610a11565b60405180910390fd5b6001600083815260200190815260200160002060000160009054906101000a900473ffffffffffffffffffffffffffffffffffffffff1673ffffffffffffffffffffffffffffffffffffffff163373ffffffffffffffffffffffffffffffffffffffff1614610434576040517f08c379a000000000000000000000000000000000000000000000000000000000815260040161042b90610add565b60405180910390fd5b60006001600084815260200190815260200160002060000160009054906101000a900473ffffffffffffffffffffffffffffffffffffffff169050816001600085815260200190815260200160002060000160006101000a81548173ffffffffffffffffffffffffffffffffffffffff021916908373ffffffffffffffffffffffffffffffffffffffff1602179055508173ffffffffffffffffffffffffffffffffffffffff168173ffffffffffffffffffffffffffffffffffffffff167f0296630eb395d63ab57db13ae4007f337b2e82ce8aba1d08d2e49c2a7eed0d128560405161052191906107c0565b60405180910390a3505050565b60405180604001604052803373ffffffffffffffffffffffffffffffffffffffff16815260200182815250600160008054815260200190815260200160002060008201518160000160006101000a81548173ffffffffffffffffffffffffffffffffffffffff021916908373ffffffffffffffffffffffffffffffffffffffff16021790555060208201518160010190816105c99190610ca9565b509050503373ffffffffffffffffffffffffffffffffffffffff167f4f1eea90beb2ccd16be5b37fc1e1272af00b7e01520eff654685171f4bab636a60005483604051610617929190610d7b565b60405180910390a260008081548092919061063190610dda565b919050555050565b6000604051905090565b600080fd5b600080fd5b6000819050919050565b6106608161064d565b811461066b57600080fd5b50565b60008135905061067d81610657565b92915050565b60006020828403121561069957610698610643565b5b60006106a78482850161066e565b91505092915050565b600073ffffffffffffffffffffffffffffffffffffffff82169050919050565b60006106db826106b0565b9050919050565b6106eb816106d0565b82525050565b600081519050919050565b600082825260208201905092915050565b60005b8381101561072b578082015181840152602081019050610710565b60008484015250505050565b6000601f19601f8301169050919050565b6000610753826106f1565b61075d81856106fc565b935061076d81856020860161070d565b61077681610737565b840191505092915050565b600060408201905061079660008301856106e2565b81810360208301526107a88184610748565b90509392505050565b6107ba8161064d565b82525050565b60006020820190506107d560008301846107b1565b92915050565b6107e4816106d0565b81146107ef57600080fd5b50565b600081359050610801816107db565b92915050565b6000806040838503121561081e5761081d610643565b5b600061082c8582860161066e565b925050602061083d858286016107f2565b9150509250929050565b600080fd5b600080fd5b7f4e487b7100000000000000000000000000000000000000000000000000000000600052604160045260246000fd5b61088982610737565b810181811067ffffffffffffffff821117156108a8576108a7610851565b5b80604052505050565b60006108bb610639565b90506108c78282610880565b919050565b600067ffffffffffffffff8211156108e7576108e6610851565b5b6108f082610737565b9050602081019050919050565b82818337600083830152505050565b600061091f61091a846108cc565b6108b1565b90508281526020810184848401111561093b5761093a61084c565b5b6109468482856108fd565b509392505050565b600082601f83011261096357610962610847565b5b813561097384826020860161090c565b91505092915050565b60006020828403121561099257610991610643565b5b600082013567ffffffffffffffff8111156109b0576109af610648565b5b6109bc8482850161094e565b91505092915050565b7f496e76616c6964207265636f7264204944000000000000000000000000000000600082015250565b60006109fb6011836106fc565b9150610a06826109c5565b602082019050919050565b60006020820190508181036000830152610a2a816109ee565b9050919050565b7f4e487b7100000000000000000000000000000000000000000000000000000000600052602260045260246000fd5b60006002820490506001821680610a7857607f821691505b602082108103610a8b57610a8a610a31565b5b50919050565b7f4e6f7420746865206f776e657200000000000000000000000000000000000000600082015250565b6000610ac7600d836106fc565b9150610ad282610a91565b602082019050919050565b60006020820190508181036000830152610af681610aba565b9050919050565b60008190508160005260206000209050919050565b60006020601f8301049050919050565b600082821b905092915050565b600060088302610b5f7fffffffffffffffffffffffffffffffffffffffffffffffffffffffffffffffff82610b22565b610b698683610b22565b95508019841693508086168417925050509392505050565b6000819050919050565b6000610ba6610ba1610b9c8461064d565b610b81565b61064d565b9050919050565b6000819050919050565b610bc083610b8b565b610bd4610bcc82610bad565b848454610b2f565b825550505050565b600090565b610be9610bdc565b610bf4818484610bb7565b505050565b5b81811015610c1857610c0d600082610be1565b600181019050610bfa565b5050565b601f821115610c5d57610c2e81610afd565b610c3784610b12565b81016020851015610c46578190505b610c5a610c5285610b12565b830182610bf9565b50505b505050565b600082821c905092915050565b6000610c8060001984600802610c62565b1980831691505092915050565b6000610c998383610c6f565b9150826002028217905092915050565b610cb2826106f1565b67ffffffffffffffff811115610ccb57610cca610851565b5b610cd58254610a60565b610ce0828285610c1c565b600060209050601f831160018114610d135760008415610d01578287015190505b610d0b8582610c8d565b865550610d73565b601f198416610d2186610afd565b60005b82811015610d4957848901518255600182019150602085019450602081019050610d24565b86831015610d665784890151610d62601f891682610c6f565b8355505b6001600288020188555050505b505050505050565b6000604082019050610d9060008301856107b1565b8181036020830152610da28184610748565b90509392505050565b7f4e487b7100000000000000000000000000000000000000000000000000000000600052601160045260246000fd5b6000610de58261064d565b91507fffffffffffffffffffffffffffffffffffffffffffffffffffffffffffffffff8203610e1757610e16610dab565b5b60018201905091905056fea26469706673582212203a3fe19da51290798d26c45cad43675548b4e7f1d4378542938019d88863c79764736f6c63430008140033",
  "linkReferences": {},
  "deployedLinkReferences": {}
}